:100000000C94C0000C94E8000C94E8000C94E800F8
:100010000C94E8000C94E8000C94E8000C94E800C0
:100020000C94E8000C94E8000C94E8000C94E800B0
:100030000C94E8000C94E8000C94E8000C94E800A0
:100040000C94E8000C94E8000C94E8000C94E80090
:100050000C94E8000C94E8000C94E8000C94E80080
:100060000C94E8000C94E8000C94E8000C94E80070
:100070000C94E8000C94E8000C94E8006E616E00AB
:10008000696E660000407A10F35A00A0724E18099B
:100090000010A5D4E80000E87648170000E40B54EF
:1000A000020000CA9A3B000000E1F50500008096BE
:1000B0009800000040420F000000A08601000000F0
:1000C000102700000000E8030000000064000000AA
:1000D00000000A00000000000100000000002C7673
:1000E000D888DC674F0823DFC1DFAE59E1B1B7968E
:1000F000E5E3E453C63AE651997696E8E6C28426EB
:10010000EB898C9B62ED407C6FFCEFBC9C9F40F2C6
:10011000BAA56FA5F490055A2AF75C936B6CF96742
:100120006DC11BFCE0E40D47FEF520E6B500D0ED07
:10013000902E0300943577050080841E080000206F
:100140004E0A000000C80C333333330F986E12830D
:100150001141EF8D2114893BE65516CFFEE6DB18E1
:10016000D1844B381BF77C1D901DA4BBE4242032A6
:1001700084725E228100C9F124ECA1E53D27BB0910
:1001800011241FBECFEFD4E0DEBFCDBF11E0A0E051
:10019000B1E0E6E8F7E102C005900D92A431B107A5
:1001A000D9F721E0A4E1B1E001C01D92A935B20761
:1001B000E1F710E0C0ECD0E004C02197FE010E94FE
:1001C0000B0ACF3BD107C9F70E94FF080C94C10B63
:1001D0000C940000A3E1B0E0E0EFF0E00C94D4094F
:1001E0006C014B012A01FC0117821682838181FF79
:1001F00043C3AE014F5F5F4F3A01F6019381F401B3
:1002000093FD859193FF81914F01882309F430C3B9
:10021000853239F493FD859193FF81914F018532A9
:1002200039F4B60190E00E94FF0A52012501E5CFA2
:1002300010E0F12C20E02032A0F48B3269F030F491
:10024000803259F0833269F420612CC08D3239F04C
:10025000803339F4216026C02260246023C02860E6
:1002600021C027FD27C030ED380F3A3078F426FF43
:1002700006C0FAE01F9F300D1124132F13C04AE06F
:10028000F49E300D1124F32E20620CC08E3221F426
:1002900026FDEEC2206406C08C3611F4206802C030
:1002A000883641F4F40193FD859193FF81914F01CC
:1002B0008111C1CF9BEB980F933018F42061805EC1
:1002C00006C09BE9980F933008F071C12F7E26FF7E
:1002D00016E02F73322E853619F42064322E08C0B2
:1002E000863621F4F22FF0683F2E02C01111115012
:1002F00037FE07C01C3350F4EE24E394E10E27E0F0
:100300000BC0183038F027E017E005C027E04CE3B9
:10031000E42E02C0212FE12C520144E0A40EB11CB6
:10032000F20160817181828193810E2DA3010E946F
:10033000110A2C01098100FF02C003FF07C031FC34
:1003400008C032FE09C030E2232E07C02DE2222E63
:1003500004C09BE2292E01C0212C802F8C7019F043
:10036000211068C2A8C237FE0FC0E40C04FF04C00D
:100370008A81813309F4EA941E1474F5F8E0FE15BD
:1003800078F588E0E82E2CC036FC2AC0812F90E05A
:10039000841595059CF02CEF42162FEF520674F051
:1003A000432D4068342E0AC0E2E0F0E0EC0FFD1F60
:1003B000E10FF11D8081803319F411501111F4CF38
:1003C00037FE0EC0EE24E394E10E812F90E0481634
:1003D00059062CF4141904C0EE24E39401C010E073
:1003E00037FE06C01414150434F4C201019605C08A
:1003F00085E090E002C081E090E021100196112399
:1004000031F0212F30E02F5F3F4F820F931F2F2DB0
:1004100030E08217930714F4F81A01C0F12C832DF1
:10042000897049F4FF2039F0B60180E290E00E9423
:10043000FF0AFA94F7CF222029F0B601822D90E02E
:100440000E94FF0A33FC09C0FF2039F0B60180E3A7
:1004500090E00E94FF0AFA94F7CF37FE5AC0942D1D
:10046000852D57FE02C090E080E0292E382E20E036
:1004700030E0A2014E1951095D874C87A201421953
:1004800053095F874E87612F70E044275527461B2D
:10049000570B598B488B5FEF2516350649F4B6018B
:1004A0008EE290E02A8B3B8B0E94FF0A3B892A89CF
:1004B000421453046CF04C855D854215530544F499
:1004C000EE85FF85E20FF31FE60DF71D818101C068
:1004D00080E351E0251A31082F5F3F4F4889598941
:1004E000241635064CF0B60190E02A8B3B8B0E9417
:1004F000FF0A2A893B89CFCF2414350439F49A8125
:10050000963318F4953311F404FF81E3B60190E0BB
:100510004BC08A81813309F00F7EB60190E00E94C2
:10052000FF0A111105C034FC18C085E690E017C021
:10053000B6018EE290E00E94FF0A82E0EE24E3948E
:10054000E80EF301E80FF11D8081B60190E00E94F2
:10055000FF0A11508E2D91F7E6CF85E490E0B601A9
:100560000E94FF0A57FC05C04114510439F404FFEE
:1005700005C05194419451088DE201C08BE2B6014F
:1005800090E00E94FF0A80E39AE0491651042CF0A3
:100590008F5F5AE0451A5108F7CFB60190E00E94EC
:1005A000FF0AB601C201C0960E94FF0A57C18336F6
:1005B00031F0833779F0833509F058C021C05201FA
:1005C000E2E0AE0EB11CF2018081898301E010E00F
:1005D000230114C05201F2E0AF0EB11CF2014080C1
:1005E000518026FF03C0612F70E002C06FEF7FEFE4
:1005F000C2012A8B0E94F40A8C012A892F7715C028
:100600005201F2E0AF0EB11CF2014080518026FF92
:1006100003C0612F70E002C06FEF7FEFC2012A8B31
:100620000E94E90A8C012A892068322E23FD1AC013
:100630008F2D90E008171907A8F4B60180E290E02A
:100640000E94FF0AFA94F4CFF20137FC859137FE3D
:1006500081912F01B60190E00E94FF0AF110FA94F7
:10066000015011090115110579F7F8C0843611F010
:10067000893659F5520127FF09C0F4E0AF0EB11CCD
:10068000F20160817181828193810AC0F2E0AF0E34
:10069000B11CF20160817181072E000C880B990B4F
:1006A0002F76322E97FF09C09095809570956195B1
:1006B0007F4F8F4F9F4F2068322E2AE030E0A301FA
:1006C0000E94630BE82EE6183FC0022F853721F405
:1006D0000F7E2AE030E01DC0097F8F3691F018F4BC
:1006E000883559F0C5C0803719F0883711F0C0C07F
:1006F000006104FF09C0046007C024FF08C0066051
:1007000006C028E030E005C020E130E002C020E172
:1007100032E0520107FF09C0F4E0AF0EB11CF20154
:10072000608171818281938108C0F2E0AF0EB11CBB
:10073000F2016081718180E090E0A3010E94630B6F
:10074000E82EE6180F77302E36FE0BC0332D3E7F95
:10075000E11650F434FE0AC032FC08C0332D3E7E50
:1007600005C00E2D332D03C00E2D01C0012F34FF07
:100770000CC0FE01EE0DF11D8081803311F4397E35
:1007800008C032FF05C00E5F04C0832F867809F0D1
:100790000F5F33FD13C030FF06C01E2D0F1518F478
:1007A0001F0D101B0F2D0F1568F4B60180E290E0AD
:1007B0003B8B0E94FF0A0F5F3B89F5CF0F1510F4AA
:1007C000F01A01C0F12C34FF12C0B60180E390E0B2
:1007D0003B8B0E94FF0A3B8932FF17C031FD03C0EB
:1007E00088E790E002C088E590E0B6010CC0832F56
:1007F000867859F031FF02C08BE201C080E237FDFC
:100800008DE2B60190E00E94FF0AE11638F4B601CD
:1008100080E390E00E94FF0A1150F7CFEA94F301C1
:10082000EE0DF11D8081B60190E00E94FF0AE110FB
:10083000F5CF14C0F4E0FF1558F584E0F81A33FE44
:100840001EC0211026C003FF2AC00CE710E0F32DC4
:10085000F0713F2EF8018491811124C0FF2009F42A
:10086000E5CCB60180E290E00E94FF0AFA94F6CF50
:10087000F6018681978126C08FEF9FEF23C0B601D6
:1008800080E290E00E94FF0AFA94F110F8CFD9CFED
:10089000F12CB601822D90E00E94FF0AD4CF00E82F
:1008A00010E0D5CF31108052B60190E00E94FF0ACF
:1008B0000F5F1F4FCFCF23E02F1510F483E0BECF83
:1008C000F12CC1CF6396E2E10C94F00985E090E051
:1008D0009093150180931401E0911B01F0911C018C
:1008E000208181E090E00090180102C0880F991FDC
:1008F0000A94E2F780958223808383E08A95F1F75A
:10090000000027E030E04DE050E016C02F98E3E013
:10091000EA95F1F7000083B183B190E0880F892F49
:10092000881F990B892BE1F02F98F3E0FA95F1F7E6
:10093000000021503109C0F0CA01022E02C0969574
:1009400087950A94E2F780FD0DC02E9883B190E060
:10095000880F892F881F990B892BC1F62F9AD7CF23
:100960002F9AE3CF2E9AF2CFE0911B01F0911C0158
:10097000408121E030E0C9010090180102C0880FD9
:10098000991F0A94E2F7842B8083E0912401F0916F
:10099000250100901F0102C0220F331F0A94E2F7C5
:1009A000808190E082239323892BD1F7E0911B0172
:1009B000F0911C01208181E090E00090180102C0BC
:1009C000880F991F0A94E2F7809582238083E3E0E1
:1009D000EA95F1F7000028E015C02F98F3E0FA95AA
:1009E000F1F7000083B183B190E0880F892F881F51
:1009F000990B892B91F02F9883E08A95F1F70000ED
:100A0000215091F02E9883B190E0880F892F881F94
:100A1000990B892B11F72F9AE1CF2F9A83E08A95B2
:100A2000F1F70000215071F7E0911B01F0911C01DA
:100A3000408181E090E09C010090180102C0220FEB
:100A4000331F0A94E2F7242B2083E7EAF1E631977B
:100A5000F1F700C0000090931701809316014091B8
:100A600014014062E0911B01F0911C012081009073
:100A7000180102C0880F991F0A94E2F7809582231B
:100A80008083F3E0FA95F1F7000050E027E030E0D2
:100A900016C02F9883E08A95F1F7000083B183B1E7
:100AA00090E0880F892F881F990B892BE1F02F98F0
:100AB000E3E0EA95F1F7000021503109C0F0CA01E6
:100AC000022E02C0969587950A94E2F780FD0DC02C
:100AD0002E9883B190E0880F892F881F990B892B5E
:100AE000C1F62F9AD7CF2F9AE3CF2E9AF2CFE0916B
:100AF0001B01F0911C01408181E090E09C0100907D
:100B0000180102C0220F331F0A94E2F7242B20831E
:100B1000E0911B01F0911C0120810090180102C09E
:100B2000880F991F0A94E2F780958223808383E0DF
:100B30008A95F1F7000027E030E04FEE50E016C054
:100B40002F98E3E0EA95F1F7000083B183B190E0DC
:100B5000880F892F881F990B892BE1F02F98F3E0DC
:100B6000FA95F1F7000021503109C0F0CA01022EB8
:100B700002C0969587950A94E2F780FD0DC02E98E5
:100B800083B190E0880F892F881F990B892BC1F6BC
:100B90002F9AD7CF2F9AE3CF2E9AF2CFE0911B0155
:100BA000F0911C01408181E090E09C0100901801CF
:100BB00002C0220F331F0A94E2F7242B20834091B6
:100BC00014014063E0911B01F0911C012081009011
:100BD000180102C0880F991F0A94E2F780958223BA
:100BE0008083E3E0EA95F1F7000050E027E030E091
:100BF00016C02F98F3E0FA95F1F7000083B183B1A6
:100C000090E0880F892F881F990B892BE1F02F988E
:100C100083E08A95F1F7000021503109C0F0CA0144
:100C2000022E02C0969587950A94E2F780FD0DC0CA
:100C30002E9883B190E0880F892F881F990B892BFC
:100C4000C1F62F9AD7CF2F9AE3CF2E9AF2CFE09109
:100C50001B01F0911C01408181E090E09C0100901B
:100C6000180102C0220F331F0A94E2F7242B2083BD
:100C7000E0911B01F0911C0120810090180102C03D
:100C8000880F991F0A94E2F7809582238083F3E00E
:100C9000FA95F1F7000027E030E040EA50E016C096
:100CA0002F9883E08A95F1F7000083B183B190E03B
:100CB000880F892F881F990B892BE1F02F98E3E08B
:100CC000EA95F1F7000021503109C0F0CA01022E67
:100CD00002C0969587950A94E2F780FD0DC02E9884
:100CE00083B190E0880F892F881F990B892BC1F65B
:100CF0002F9AD7CF2F9AE3CF2E9AF2CFE0911B01F4
:100D0000F0911C01208181E090E00090180102C068
:100D1000880F991F0A94E2F7822B808308950F931E
:100D20001F93CF93DF93609114016061E0911B01E9
:100D3000F0911C01208181E090E00090180102C038
:100D4000880F991F0A94E2F780958223808323E01D
:100D50002A95F1F7000070E027E030E016C02F98E8
:100D600083E08A95F1F7000083B183B190E0880FAA
:100D7000892F881F990B892BE1F02F9883E08A95A2
:100D8000F1F7000021503109C0F0CB01022E02C062
:100D9000969587950A94E2F780FD0DC02E9883B151
:100DA00090E0880F892F881F990B892BC1F62F9A05
:100DB000D7CF2F9AE3CF2E9AF2CFE0911B01F0917B
:100DC0001C01608181E090E09C010090180102C04C
:100DD000220F331F0A94E2F7262B2083E0911B0198
:100DE000F0911C0120810090180102C0880F991F0A
:100DF0000A94E2F780958223808323E02A95F1F715
:100E0000000027E030E060E270E016C02F9883E039
:100E10008A95F1F7000083B183B190E0880F892FA4
:100E2000881F990B892BE1F02F9883E08A95F1F7C1
:100E3000000021503109C0F0CB01022E02C096956E
:100E400087950A94E2F780FD0DC02E9883B190E05B
:100E5000880F892F881F990B892BC1F62F9AD7CF1E
:100E60002F9AE3CF2E9AF2CFE0911B01F0911C0153
:100E7000608121E030E0C9010090180102C0880FB4
:100E8000991F0A94E2F7862B8083E0912401F09168
:100E9000250100901F0102C0220F331F0A94E2F7C0
:100EA000808190E082239323892BD1F7808190E089
:100EB00082239323892BD1F7609114016865E09117
:100EC0001B01F0911C01208181E090E0009018014D
:100ED00002C0880F991F0A94E2F7809582238083CD
:100EE00023E02A95F1F7000070E027E030E016C01B
:100EF0002F9883E08A95F1F7000083B183B190E0E9
:100F0000880F892F881F990B892BE1F02F9883E098
:100F10008A95F1F7000021503109C0F0CB01022E73
:100F200002C0969587950A94E2F780FD0DC02E9831
:100F300083B190E0880F892F881F990B892BC1F608
:100F40002F9AD7CF2F9AE3CF2E9AF2CFE0911B01A1
:100F5000F0911C01608181E090E09C0100901801FB
:100F600002C0220F331F0A94E2F7262B2083E09160
:100F70001B01F0911C0120810090180102C0880F14
:100F8000991F0A94E2F780958223808323E02A95B3
:100F9000F1F7000027E030E060E020C02F9883E008
:100FA0008A95F1F7000083B185FB442740F950E0B2
:100FB000CA0101C0880F7A95EAF7682B83B190E0E7
:100FC000880F892F881F990B892BA1F02F9883E018
:100FD0008A95F1F700002150310970F0722F2E9898
:100FE00083B190E0880F892F881F990B892BB1F668
:100FF0002F9AD5CF2F9AEBCF462F50E060E070E0CC
:101000002091160130911701232B09F48AC0BA01EF
:101010005527442783E08A95F1F7000027E030E068
:10102000E0E022C02F9883E08A95F1F7000083B1B9
:1010300085FB882780F9C82F80E0D82FCE0101C01A
:10104000880FFA95EAF7E82B83B190E0880F892F93
:10105000881F990B892BA1F02F9883E08A95F1F7CF
:1010600000002150310970F0F22F2E9883B190E0EA
:10107000880F892F881F990B892BA1F62F9AD3CF20
:101080002F9AEBCF5E2B23E02A95F1F7000027E0A3
:1010900030E0E0E020C02F9883E08A95F1F700006F
:1010A00083B185FBAA27A0F9B0E0CD0101C0880F6C
:1010B000FA95EAF7E82B83B190E0880F892F881F13
:1010C000990B892BA1F02F9883E08A95F1F7000006
:1010D0002150310970F0F22F2E9883B190E0880FE3
:1010E000892F881F990B892BB1F62F9AD5CF2F9A6C
:1010F000EBCFCB01BA016E2BE0911B01F0911C01EB
:10110000408121E030E00090180102C0220F331F1F
:101110000A94E2F7242B2083DF91CF911F910F9146
:101120000895B62FA52F942F882723E02A95F1F74D
:10113000000047E050E0E0E020C02F9823E02A952F
:10114000F1F7000023B125FB002700F910E098011A
:1011500001C0220FFA95EAF7E22B23B130E0220F0B
:10116000232F221F330B232BA1F02F9823E02A9546
:10117000F1F700004150510970F0F42F2E9823B17F
:1011800030E0220F232F221F330B232BB1F62F9A8F
:10119000D5CF2F9AEBCFBC01CD016E2BADCF2B98C5
:1011A00080FF06C02C9A81FD06C02A982B9A0895CC
:1011B0002C9881FFFACF2A9A2B9A0895CF93DF9328
:1011C000CDB7DEB79E01275F3F4F4F81588562E361
:1011D00070E087E291E00E94370B8091270188231D
:1011E00059F0E8E2F1E08093C6008091C00085FFED
:1011F000FCCF81918111F7CFDF91CF9108951092AB
:10120000C5008CE08093C40086E08093C20088E132
:101210008093C100539A5B98249A229A239A2B9820
:101220002B98579A5F9A25982D9A269A279A2F9845
:10123000E0911901F0911A01408181E090E09C0158
:101240000090180102C0220F331F0A94E2F7242BEA
:101250002083E0911B01F0911C0140819C010090D2
:10126000180102C0220F331F0A94E2F7242B2083B7
:10127000E0912001F09121012081AC0100901F013B
:1012800002C0440F551F0A94E2F74095242320839F
:10129000E0912201F0912301208100901F0102C002
:1012A000880F991F0A94E2F78095822380832FE3A9
:1012B00082E49FE0215080409040E1F700C00000B0
:1012C0000E94660480E0E82E81E0F82E06E211E03C
:1012D000580199E0C92E91E0D92EC1E08C2F0E94CF
:1012E000CF0887EA91E60197F1F700C000000E945D
:1012F0008F062B989F938F937F936F93FF92EF921C
:101300001F930F930E94DE0883EC99E00197F1F799
:1013100000C00000CF5F8DB79EB708960FB6F89457
:101320009EBF0FBE8DBFC430C9F680E00E94CF08BB
:101330005B9A87EA91E60197F1F700C000000E94EE
:101340008F065B989F938F937F936F93DF92CF92DB
:10135000BF92AF920E94DE0883EC99E00197F1F70B
:1013600000C000008DB79EB708960FB6F8949EBFD8
:101370000FBE8DBFB2CFE4E1F1E085E084834AE2A5
:1013800050E0568345832BE230E03087278389E2A3
:1013900090E09287818766E0638755874487378727
:1013A0002687918B808B08952F923F924F925F9268
:1013B0006F927F928F929F92AF92BF92CF92DF9265
:1013C000EF92FF920F931F93CF93DF93CDB7DEB7CA
:1013D000CA1BDB0B0FB6F894DEBF0FBECDBF09945E
:1013E0002A88398848885F846E847D848C849B84B5
:1013F000AA84B984C884DF80EE80FD800C811B81C3
:10140000AA81B981CE0FD11D0FB6F894DEBF0FBEF1
:10141000CDBFED010895EE0FFF1F0590F491E02D73
:101420000994283008F027E03327DA01990F311D9D
:1014300087FD916000966105710539F432602E5F79
:101440003D9330E32A95E1F708959F3F30F08038CF
:101450007105610509F03C5F3C5F3D93913008F0F8
:101460008068911DDF93CF931F930F93FF92EF92AC
:10147000192F987F9695E92F96959695E90FFF2756
:10148000E252FF4F99273327EE24FF24A701E701FB
:1014900005900894079428F4360FE71EF81E491F9C
:1014A000511D660F771F881F991F0694A1F705909D
:1014B000079428F4E70EF81E491F561FC11D770F29
:1014C000881F991F661F0694A1F70590079428F4BA
:1014D000F80E491F561FC71FD11D880F991F661F81
:1014E000771F0694A1F70590079420F4490F561F23
:1014F000C71FD81F990F661F771F881F0694A9F76B
:1015000084911095177041F0D695C79557954795DA
:10151000F794E7941A95C1F7E4E8F0E06894159021
:10152000159135916591959105907FE27395E1183C
:10153000F10A430B560BC90BD009C0F7E10CF11EA1
:10154000431F561FC91FD01D7EF4703311F48A95B6
:10155000E6CFE894015030F0080F0AF40027021794
:1015600008F4202F2395022F7A3328F079E37D9316
:101570002A95E9F710C07D932A9589F606949795E8
:101580006795379517951794E118F10A430B560B99
:10159000C90BD00998F023957E9173957A3308F0A2
:1015A00070E37C932013B8F77E9170617D9330F0E7
:1015B000839571E37D9370E32A95E1F71124EF9011
:1015C000FF900F911F91CF91DF91992787FD909503
:1015D0000895FC010590615070400110D8F7809586
:1015E00090958E0F9F1F0895FC01615070400190EF
:1015F0000110D8F7809590958E0F9F1F08950F9337
:101600001F93CF93DF93FB01238121FD03C08FEF55
:101610009FEF28C022FF16C0468157812481358163
:101620004217530744F4A081B1819D012F5F3F4FC2
:10163000318320838C93268137812F5F3F4F3783FF
:10164000268310C0EB01092F182F0084F185E02DAF
:101650000995892BE1F68E819F8101969F838E8368
:10166000812F902FDF91CF911F910F910895AEE0C0
:10167000B0E0EDE3FBE00C94E2098C01CA0146E026
:101680004C831A83098377FF02C060E070E8FB0196
:101690003197FE83ED83A901BC01CE0101960E9422
:1016A000EA004D815E8157FD0AC02F8138854217BF
:1016B00053070CF49A01F801E20FF31F10822E96E3
:1016C000E4E00C94FE09FA01AA27283051F12031F8
:1016D00081F1E8946F936E7F6E5F7F4F8F4F9F4FC6
:1016E000AF4FB1E03ED0B4E03CD0670F781F891F08
:1016F0009A1FA11D680F791F8A1F911DA11D6A0FD6
:10170000711D811D911DA11D20D009F468943F9188
:101710002AE0269F11243019305D3193DEF6CF0187
:101720000895462F4770405D4193B3E00FD0C9F74D
:10173000F6CF462F4F70405D4A3318F0495D31FDBA
:101740004052419302D0A9F7EACFB4E0A69597950D
:10175000879577956795BA95C9F7009761057105E3
:1017600008959B01AC010A2E06945795479537952D
:101770002795BA95C9F7620F731F841F951FA01D87
:061780000895F894FFCF6C
:1017860030782530386C78200030782530386C7801
:041796000D0A000038
:00000001FF
